{
  "transactions": [
    {
      "hash": "0x202ca9434b1d138f6797b3012542e142b05abe8dbc4297849e1b7bf1dd62104c",
      "transactionType": "CALL",
      "contractName": null,
      "contractAddress": "0x8103b0a8a00be2ddc778e6e7eaa21791cd364625",
      "function": "createSubscription()",
      "arguments": [],
      "transaction": {
        "from": "0x88447ccd5095e37243b4a47401019fb9a085b1a9",
        "to": "0x8103b0a8a00be2ddc778e6e7eaa21791cd364625",
        "gas": "0x1558c",
        "value": "0x0",
        "input": "0xa21a23e4",
        "nonce": "0x0",
        "chainId": "0xaa36a7"
      },
      "additionalContracts": [],
      "isFixedGasLimit": false
    },
    {
      "hash": "0x40f83b253700e98c1d0855be01df5ed5f3b8c66900474e2f49cb48046bf47a47",
      "transactionType": "CALL",
      "contractName": "LinkToken",
      "contractAddress": "0x779877a7b0d9e8603169ddbd7836e478b4624789",
      "function": "transferAndCall(address,uint256,bytes)",
      "arguments": [
        "0x8103B0A8A00be2DDC778e6e7eaa21791Cd364625",
        "3000000000000000000",
        "0x0000000000000000000000000000000000000000000000000000000000002e35"
      ],
      "transaction": {
        "from": "0x88447ccd5095e37243b4a47401019fb9a085b1a9",
        "to": "0x779877a7b0d9e8603169ddbd7836e478b4624789",
        "gas": "0x1b43f",
        "value": "0x0",
        "input": "0x4000aea00000000000000000000000008103b0a8a00be2ddc778e6e7eaa21791cd36462500000000000000000000000000000000000000000000000029a2241af62c0000000000000000000000000000000000000000000000000000000000000000006000000000000000000000000000000000000000000000000000000000000000200000000000000000000000000000000000000000000000000000000000002e35",
        "nonce": "0x1",
        "chainId": "0xaa36a7"
      },
      "additionalContracts": [],
      "isFixedGasLimit": false
    },
    {
      "hash": "0x3961ca08126cf97a8737bff3705c685d3d920f1d1d9a667a029ada3cf625cc57",
      "transactionType": "CREATE",
      "contractName": "Raffle",
      "contractAddress": "0xd1b813a0b48f48339a01e6d7ed3f5a10bc60c802",
      "function": null,
      "arguments": [
        "10000000000000000",
        "30",
        "0x8103B0A8A00be2DDC778e6e7eaa21791Cd364625",
        "0x474e34a077df58807dbe9c96d3c009b23b3c6d0cce433e59bbf5b34f823bc56c",
        "11829",
        "500000"
      ],
      "transaction": {
        "from": "0x88447ccd5095e37243b4a47401019fb9a085b1a9",
        "gas": "0xd3c92",
        "value": "0x0",
        "input": "0x61016060405234801561001157600080fd5b50604051610c1a380380610c1a83398101604081905261003091610087565b6001600160a01b0393909316608081905260a09590955260c09390935260e093909352610100929092526001600160401b03166101205263ffffffff16610140526002805460ff60a01b1916905542600155610112565b60008060008060008060c087890312156100a057600080fd5b86516020880151604089015191975095506001600160a01b03811681146100c657600080fd5b6060880151608089015191955093506001600160401b03811681146100ea57600080fd5b60a088015190925063ffffffff8116811461010457600080fd5b809150509295509295509295565b60805160a05160c05160e051610100516101205161014051610a9a610180600039600061047b015260006104440152600061041e015260006104b90152600081816103c2015261056201526000818160a501526102770152600081816101f301526102350152610a9a6000f3fe6080604052600436106100915760003560e01c80634585e33b116100595780634585e33b1461013e5780638cf2a2901461015e578063a13abdad14610190578063c1c244e8146101b3578063e55ae4e8146101c857600080fd5b806309bc33a7146100965780630ea3df38146100d8578063115cbaf5146100ed5780631fe543e3146101145780632cfcc53914610136575b600080fd5b3480156100a257600080fd5b507f00000000000000000000000000000000000000000000000000000000000000005b6040519081526020015b60405180910390f35b3480156100e457600080fd5b506000546100c5565b3480156100f957600080fd5b50600254600160a01b900460ff166040516100cf9190610800565b34801561012057600080fd5b5061013461012f36600461083e565b6101e8565b005b610134610275565b34801561014a57600080fd5b50610134610159366004610908565b610360565b34801561016a57600080fd5b506002546001600160a01b03165b6040516001600160a01b0390911681526020016100cf565b34801561019c57600080fd5b506101a561055a565b6040516100cf92919061097a565b3480156101bf57600080fd5b506001546100c5565b3480156101d457600080fd5b506101786101e33660046109d3565b610606565b336001600160a01b037f000000000000000000000000000000000000000000000000000000000000000016146102675760405163073e64fd60e21b81523360048201526001600160a01b037f00000000000000000000000000000000000000000000000000000000000000001660248201526044015b60405180910390fd5b6102718282610635565b5050565b7f00000000000000000000000000000000000000000000000000000000000000003410156102b65760405163246b904d60e01b815260040160405180910390fd5b6000600254600160a01b900460ff1660018111156102d6576102d66107ea565b146102f45760405163349289c560e21b815260040160405180910390fd5b600080546001810182558180527f290decd9548b62a8d60345a988386fc84ba6bc95484008f6362f93160ef3e5630180546001600160a01b0319163390811790915560405190917f819fbd717c9d0b421352c5116a644ca68ba176960c33f406f08d98a27370ca2791a2565b600061036a61055a565b509050806103c057600054600254479190600160a01b900460ff166001811115610396576103966107ea565b604051632c2193d560e11b815260048101939093526024830191909152604482015260640161025e565b7f0000000000000000000000000000000000000000000000000000000000000000600154426103ef91906109ec565b10156103fa57600080fd5b60028054600160a01b60ff60a01b199091161790556040516305d3b1d360e41b81527f000000000000000000000000000000000000000000000000000000000000000060048201527f000000000000000000000000000000000000000000000000000000000000000067ffffffffffffffff166024820152600360448201527f000000000000000000000000000000000000000000000000000000000000000063ffffffff166064820152600160848201526000906001600160a01b037f00000000000000000000000000000000000000000000000000000000000000001690635d3b1d309060a4016020604051808303816000875af1158015610502573d6000803e3d6000fd5b505050506040513d601f19601f820116820180604052508101906105269190610a13565b60405190915081907fcd6e45c8998311cab7e9d4385596cac867e20a0587194b954fa3a731c93ce78b90600090a250505050565b6000606060007f00000000000000000000000000000000000000000000000000000000000000006001544261058f91906109ec565b101590506000600260149054906101000a900460ff1660018111156105b6576105b66107ea565b600054901591504715159015158380156105cd5750825b80156105d65750815b80156105df5750805b60408051808201909152600381526203078360ec1b60208201529097909650945050505050565b600080828154811061061a5761061a610a2c565b6000918252602090912001546001600160a01b031692915050565b6000805482518390839061064b5761064b610a2c565b602002602001015161065d9190610a42565b9050600080828154811061067357610673610a2c565b600091825260208083209190910154600280546001600160a81b0319166001600160a01b039092169182179055604080518481529283019081905291519093506106be929190610770565b50426001556040516000906001600160a01b0383169047908381818185875af1925050503d806000811461070e576040519150601f19603f3d011682016040523d82523d6000602084013e610713565b606091505b505090508061073557604051638dea0f0760e01b815260040160405180910390fd5b6040516001600160a01b038316907fb112587e57bfa970257f3d54fc52859c6300f6bd7a982462c320fed45c2530ed90600090a25050505050565b8280548282559060005260206000209081019282156107c5579160200282015b828111156107c557825182546001600160a01b0319166001600160a01b03909116178255602090920191600190910190610790565b506107d19291506107d5565b5090565b5b808211156107d157600081556001016107d6565b634e487b7160e01b600052602160045260246000fd5b602081016002831061082257634e487b7160e01b600052602160045260246000fd5b91905290565b634e487b7160e01b600052604160045260246000fd5b6000806040838503121561085157600080fd5b8235915060208084013567ffffffffffffffff8082111561087157600080fd5b818601915086601f83011261088557600080fd5b81358181111561089757610897610828565b8060051b604051601f19603f830116810181811085821117156108bc576108bc610828565b6040529182528482019250838101850191898311156108da57600080fd5b938501935b828510156108f8578435845293850193928501926108df565b8096505050505050509250929050565b6000806020838503121561091b57600080fd5b823567ffffffffffffffff8082111561093357600080fd5b818501915085601f83011261094757600080fd5b81358181111561095657600080fd5b86602082850101111561096857600080fd5b60209290920196919550909350505050565b82151581526000602060406020840152835180604085015260005b818110156109b157858101830151858201606001528201610995565b506000606082860101526060601f19601f830116850101925050509392505050565b6000602082840312156109e557600080fd5b5035919050565b81810381811115610a0d57634e487b7160e01b600052601160045260246000fd5b92915050565b600060208284031215610a2557600080fd5b5051919050565b634e487b7160e01b600052603260045260246000fd5b600082610a5f57634e487b7160e01b600052601260045260246000fd5b50069056fea26469706673582212205967d0a8527cf48448dc820a8eb2d07d6d79550dd5d788fc508213b168861b4f64736f6c63430008190033000000000000000000000000000000000000000000000000002386f26fc10000000000000000000000000000000000000000000000000000000000000000001e0000000000000000000000008103b0a8a00be2ddc778e6e7eaa21791cd364625474e34a077df58807dbe9c96d3c009b23b3c6d0cce433e59bbf5b34f823bc56c0000000000000000000000000000000000000000000000000000000000002e35000000000000000000000000000000000000000000000000000000000007a120",
        "nonce": "0x2",
        "chainId": "0xaa36a7"
      },
      "additionalContracts": [],
      "isFixedGasLimit": false
    },
    {
      "hash": "0x37a7fa0472fc22d31c3aa4debc50a49af38b8b9edef6b70482c282ef33be6de0",
      "transactionType": "CALL",
      "contractName": null,
      "contractAddress": "0x8103b0a8a00be2ddc778e6e7eaa21791cd364625",
      "function": "addConsumer(uint64,address)",
      "arguments": [
        "11829",
        "0xD1b813a0B48f48339A01e6D7Ed3f5a10BC60C802"
      ],
      "transaction": {
        "from": "0x88447ccd5095e37243b4a47401019fb9a085b1a9",
        "to": "0x8103b0a8a00be2ddc778e6e7eaa21791cd364625",
        "gas": "0x21eb0",
        "value": "0x0",
        "input": "0x7341c10c0000000000000000000000000000000000000000000000000000000000002e35000000000000000000000000d1b813a0b48f48339a01e6d7ed3f5a10bc60c802",
        "nonce": "0x3",
        "chainId": "0xaa36a7"
      },
      "additionalContracts": [],
      "isFixedGasLimit": false
    }
  ],
  "receipts": [
    {
      "status": "0x1",
      "cumulativeGasUsed": "0x93e286",
      "logs": [
        {
          "address": "0x8103b0a8a00be2ddc778e6e7eaa21791cd364625",
          "topics": [
            "0x464722b4166576d3dcbba877b999bc35cf911f4eaf434b7eba68fa113951d0bf",
            "0x0000000000000000000000000000000000000000000000000000000000002e35"
          ],
          "data": "0x00000000000000000000000088447ccd5095e37243b4a47401019fb9a085b1a9",
          "blockHash": "0x1e4ca43caceea0c58b30bac51ae0d201ffc49e132ce4d6e728a6be2f138ed515",
          "blockNumber": "0x5bec28",
          "transactionHash": "0x202ca9434b1d138f6797b3012542e142b05abe8dbc4297849e1b7bf1dd62104c",
          "transactionIndex": "0x63",
          "logIndex": "0xab",
          "removed": false
        }
      ],
      "logsBloom": "0x0000000000000000000001000000000000000000000000000000000000000000010000000000000000000000000000000000000000200000000000000000000000000000000000000000000010000000000000000000000000000000000000000000000000000000000000000000000000000000000000000000000000000000000000000c000020000000000000000000000000000000000000000000000000000000000000000000000000000200000000000000000000000000000000000000000000000000200000000000000000000000000000000000000000000000000000000000000000000000000000000000000000000000000000000000000000",
      "type": "0x0",
      "transactionHash": "0x202ca9434b1d138f6797b3012542e142b05abe8dbc4297849e1b7bf1dd62104c",
      "transactionIndex": "0x63",
      "blockHash": "0x1e4ca43caceea0c58b30bac51ae0d201ffc49e132ce4d6e728a6be2f138ed515",
      "blockNumber": "0x5bec28",
      "gasUsed": "0xe98a",
      "effectiveGasPrice": "0x1adf3f2ce",
      "from": "0x88447ccd5095e37243b4a47401019fb9a085b1a9",
      "to": "0x8103b0a8a00be2ddc778e6e7eaa21791cd364625",
      "contractAddress": null
    },
    {
      "status": "0x1",
      "cumulativeGasUsed": "0x950cd0",
      "logs": [
        {
          "address": "0x779877a7b0d9e8603169ddbd7836e478b4624789",
          "topics": [
            "0xddf252ad1be2c89b69c2b068fc378daa952ba7f163c4a11628f55a4df523b3ef",
            "0x00000000000000000000000088447ccd5095e37243b4a47401019fb9a085b1a9",
            "0x0000000000000000000000008103b0a8a00be2ddc778e6e7eaa21791cd364625"
          ],
          "data": "0x00000000000000000000000000000000000000000000000029a2241af62c0000",
          "blockHash": "0x1e4ca43caceea0c58b30bac51ae0d201ffc49e132ce4d6e728a6be2f138ed515",
          "blockNumber": "0x5bec28",
          "transactionHash": "0x40f83b253700e98c1d0855be01df5ed5f3b8c66900474e2f49cb48046bf47a47",
          "transactionIndex": "0x64",
          "logIndex": "0xac",
          "removed": false
        },
        {
          "address": "0x779877a7b0d9e8603169ddbd7836e478b4624789",
          "topics": [
            "0xe19260aff97b920c7df27010903aeb9c8d2be5d310a2c67824cf3f15396e4c16",
            "0x00000000000000000000000088447ccd5095e37243b4a47401019fb9a085b1a9",
            "0x0000000000000000000000008103b0a8a00be2ddc778e6e7eaa21791cd364625"
          ],
          "data": "0x00000000000000000000000000000000000000000000000029a2241af62c0000000000000000000000000000000000000000000000000000000000000000004000000000000000000000000000000000000000000000000000000000000000200000000000000000000000000000000000000000000000000000000000002e35",
          "blockHash": "0x1e4ca43caceea0c58b30bac51ae0d201ffc49e132ce4d6e728a6be2f138ed515",
          "blockNumber": "0x5bec28",
          "transactionHash": "0x40f83b253700e98c1d0855be01df5ed5f3b8c66900474e2f49cb48046bf47a47",
          "transactionIndex": "0x64",
          "logIndex": "0xad",
          "removed": false
        },
        {
          "address": "0x8103b0a8a00be2ddc778e6e7eaa21791cd364625",
          "topics": [
            "0xd39ec07f4e209f627a4c427971473820dc129761ba28de8906bd56f57101d4f8",
            "0x0000000000000000000000000000000000000000000000000000000000002e35"
          ],
          "data": "0x000000000000000000000000000000000000000000000000000000000000000000000000000000000000000000000000000000000000000029a2241af62c0000",
          "blockHash": "0x1e4ca43caceea0c58b30bac51ae0d201ffc49e132ce4d6e728a6be2f138ed515",
          "blockNumber": "0x5bec28",
          "transactionHash": "0x40f83b253700e98c1d0855be01df5ed5f3b8c66900474e2f49cb48046bf47a47",
          "transactionIndex": "0x64",
          "logIndex": "0xae",
          "removed": false
        }
      ],
      "logsBloom": "0x0000001400000000000000000000000000000000000000020000000002000000000000000100800000000000000000000000000000200000000000000000000000000000000000000000000810000000000000000000000000002000000000000000000000000000000000000000000000000000400000000000001000000000000000000c000020000000000000800010000020000000000000000000000000000000000000000008000000000200000000000000000000000400000000000000000002000000000000000000000000000000000000000100000000000000000000000000000000000000000000000000000080000000000000000000000000",
      "type": "0x0",
      "transactionHash": "0x40f83b253700e98c1d0855be01df5ed5f3b8c66900474e2f49cb48046bf47a47",
      "transactionIndex": "0x64",
      "blockHash": "0x1e4ca43caceea0c58b30bac51ae0d201ffc49e132ce4d6e728a6be2f138ed515",
      "blockNumber": "0x5bec28",
      "gasUsed": "0x12a4a",
      "effectiveGasPrice": "0x1adf3f2ce",
      "from": "0x88447ccd5095e37243b4a47401019fb9a085b1a9",
      "to": "0x779877a7b0d9e8603169ddbd7836e478b4624789",
      "contractAddress": null
    },
    {
      "status": "0x1",
      "cumulativeGasUsed": "0x9f3c36",
      "logs": [],
      "logsBloom": "0x00000000000000000000000000000000000000000000000000000000000000000000000000000000000000000000000000000000000000000000000000000000000000000000000000000000000000000000000000000000000000000000000000000000000000000000000000000000000000000000000000000000000000000000000000000000000000000000000000000000000000000000000000000000000000000000000000000000000000000000000000000000000000000000000000000000000000000000000000000000000000000000000000000000000000000000000000000000000000000000000000000000000000000000000000000000",
      "type": "0x0",
      "transactionHash": "0x3961ca08126cf97a8737bff3705c685d3d920f1d1d9a667a029ada3cf625cc57",
      "transactionIndex": "0x65",
      "blockHash": "0x1e4ca43caceea0c58b30bac51ae0d201ffc49e132ce4d6e728a6be2f138ed515",
      "blockNumber": "0x5bec28",
      "gasUsed": "0xa2f66",
      "effectiveGasPrice": "0x1adf3f2ce",
      "from": "0x88447ccd5095e37243b4a47401019fb9a085b1a9",
      "to": null,
      "contractAddress": "0xd1b813a0b48f48339a01e6d7ed3f5a10bc60c802"
    },
    {
      "status": "0x1",
      "cumulativeGasUsed": "0xa0af48",
      "logs": [
        {
          "address": "0x8103b0a8a00be2ddc778e6e7eaa21791cd364625",
          "topics": [
            "0x43dc749a04ac8fb825cbd514f7c0e13f13bc6f2ee66043b76629d51776cff8e0",
            "0x0000000000000000000000000000000000000000000000000000000000002e35"
          ],
          "data": "0x000000000000000000000000d1b813a0b48f48339a01e6d7ed3f5a10bc60c802",
          "blockHash": "0x1e4ca43caceea0c58b30bac51ae0d201ffc49e132ce4d6e728a6be2f138ed515",
          "blockNumber": "0x5bec28",
          "transactionHash": "0x37a7fa0472fc22d31c3aa4debc50a49af38b8b9edef6b70482c282ef33be6de0",
          "transactionIndex": "0x66",
          "logIndex": "0xaf",
          "removed": false
        }
      ],
      "logsBloom": "0x0000000000000000000000000000000000000000000000000000000000000000000000000000000000000000000000000000000000200000000000000000000000000000000000000000000010000000000000000000000000000000000000000000000000008000000000000000000000000000000000000000000000000000000000000c000020000000000000000000000000000000000000000000000000000000000000000000000080000200000000000000000000000000000000000000000000000000000000000000000000000000000000000000020000000000000000000000000000000000000000000000000000000000000000000000000000",
      "type": "0x0",
      "transactionHash": "0x37a7fa0472fc22d31c3aa4debc50a49af38b8b9edef6b70482c282ef33be6de0",
      "transactionIndex": "0x66",
      "blockHash": "0x1e4ca43caceea0c58b30bac51ae0d201ffc49e132ce4d6e728a6be2f138ed515",
      "blockNumber": "0x5bec28",
      "gasUsed": "0x17312",
      "effectiveGasPrice": "0x1adf3f2ce",
      "from": "0x88447ccd5095e37243b4a47401019fb9a085b1a9",
      "to": "0x8103b0a8a00be2ddc778e6e7eaa21791cd364625",
      "contractAddress": null
    }
  ],
  "libraries": [],
  "pending": [],
  "returns": {
    "0": {
      "internal_type": "contract Raffle",
      "value": "0xD1b813a0B48f48339A01e6D7Ed3f5a10BC60C802"
    },
    "1": {
      "internal_type": "contract HelperConfig",
      "value": "0xC7f2Cf4845C6db0e1a1e91ED41Bcd0FcC1b0E141"
    }
  },
  "timestamp": 1717320959,
  "chain": 11155111,
  "commit": "6933bbf"
}